{
  "contractName": "CarStore",
  "abi": [
    {
      "inputs": [],
      "payable": false,
      "stateMutability": "nonpayable",
      "type": "constructor"
    },
    {
      "anonymous": false,
      "inputs": [
        {
          "indexed": false,
          "internalType": "address",
          "name": "_carId",
          "type": "address"
        },
        {
          "indexed": false,
          "internalType": "address",
          "name": "_buyerAddress",
          "type": "address"
        }
      ],
      "name": "BuyCar",
      "type": "event"
    },
    {
      "constant": false,
      "inputs": [
        {
          "internalType": "address",
          "name": "_carId",
          "type": "address"
        },
        {
          "internalType": "uint256",
          "name": "_price",
          "type": "uint256"
        }
      ],
      "name": "addCar",
      "outputs": [],
      "payable": false,
      "stateMutability": "nonpayable",
      "type": "function"
    },
    {
      "constant": false,
      "inputs": [
        {
          "internalType": "address",
          "name": "_carId",
          "type": "address"
        }
      ],
      "name": "buyCar",
      "outputs": [],
      "payable": false,
      "stateMutability": "nonpayable",
      "type": "function"
    },
    {
      "constant": true,
      "inputs": [],
      "name": "getCarList",
      "outputs": [
        {
          "internalType": "address[]",
          "name": "",
          "type": "address[]"
        }
      ],
      "payable": false,
      "stateMutability": "view",
      "type": "function"
    },
    {
      "constant": true,
      "inputs": [
        {
          "internalType": "address",
          "name": "_carId",
          "type": "address"
        }
      ],
      "name": "getCar",
      "outputs": [
        {
          "components": [
            {
              "internalType": "uint256",
              "name": "price",
              "type": "uint256"
            },
            {
              "internalType": "bool",
              "name": "sold",
              "type": "bool"
            },
            {
              "internalType": "address",
              "name": "buyerAddress",
              "type": "address"
            }
          ],
          "internalType": "struct CarStore.Car",
          "name": "",
          "type": "tuple"
        }
      ],
      "payable": false,
      "stateMutability": "view",
      "type": "function"
    }
  ],
  "bytecode": "0x608060405234801561001057600080fd5b50336000806101000a81548173ffffffffffffffffffffffffffffffffffffffff021916908373ffffffffffffffffffffffffffffffffffffffff160217905550610a67806100606000396000f3fe608060405234801561001057600080fd5b506004361061004c5760003560e01c80633758a0cb1461005157806339faf3ae1461006d57806355f6b07314610089578063924f7307146100b9575b600080fd5b61006b600480360361006691908101906106c9565b6100d7565b005b610087600480360361008291908101906106a0565b61032e565b005b6100a3600480360361009e91908101906106a0565b6104db565b6040516100b09190610913565b60405180910390f35b6100c16105af565b6040516100ce91906108b1565b60405180910390f35b600073ffffffffffffffffffffffffffffffffffffffff163373ffffffffffffffffffffffffffffffffffffffff16141561011157600080fd5b6000809054906101000a900473ffffffffffffffffffffffffffffffffffffffff1673ffffffffffffffffffffffffffffffffffffffff163373ffffffffffffffffffffffffffffffffffffffff16146101a0576040517f08c379a0000000000000000000000000000000000000000000000000000000008152600401610197906108d3565b60405180910390fd5b80600160008473ffffffffffffffffffffffffffffffffffffffff1673ffffffffffffffffffffffffffffffffffffffff168152602001908152602001600020600001819055506000600160008473ffffffffffffffffffffffffffffffffffffffff1673ffffffffffffffffffffffffffffffffffffffff16815260200190815260200160002060010160006101000a81548160ff0219169083151502179055506000600160008473ffffffffffffffffffffffffffffffffffffffff1673ffffffffffffffffffffffffffffffffffffffff16815260200190815260200160002060010160016101000a81548173ffffffffffffffffffffffffffffffffffffffff021916908373ffffffffffffffffffffffffffffffffffffffff16021790555060028290806001815401808255809150509060018203906000526020600020016000909192909190916101000a81548173ffffffffffffffffffffffffffffffffffffffff021916908373ffffffffffffffffffffffffffffffffffffffff160217905550505050565b60001515600160008373ffffffffffffffffffffffffffffffffffffffff1673ffffffffffffffffffffffffffffffffffffffff16815260200190815260200160002060010160009054906101000a900460ff161515146103c4576040517f08c379a00000000000000000000000000000000000000000000000000000000081526004016103bb906108f3565b60405180910390fd5b60018060008373ffffffffffffffffffffffffffffffffffffffff1673ffffffffffffffffffffffffffffffffffffffff16815260200190815260200160002060010160006101000a81548160ff02191690831515021790555033600160008373ffffffffffffffffffffffffffffffffffffffff1673ffffffffffffffffffffffffffffffffffffffff16815260200190815260200160002060010160016101000a81548173ffffffffffffffffffffffffffffffffffffffff021916908373ffffffffffffffffffffffffffffffffffffffff1602179055507f3308fbbf99877cf252079717e6d0f3eedf58623d8413c39481da9522edd1371d81336040516104d0929190610888565b60405180910390a150565b6104e361063d565b600160008373ffffffffffffffffffffffffffffffffffffffff1673ffffffffffffffffffffffffffffffffffffffff168152602001908152602001600020604051806060016040529081600082015481526020016001820160009054906101000a900460ff161515151581526020016001820160019054906101000a900473ffffffffffffffffffffffffffffffffffffffff1673ffffffffffffffffffffffffffffffffffffffff1673ffffffffffffffffffffffffffffffffffffffff16815250509050919050565b6060600280548060200260200160405190810160405280929190818152602001828054801561063357602002820191906000526020600020905b8160009054906101000a900473ffffffffffffffffffffffffffffffffffffffff1673ffffffffffffffffffffffffffffffffffffffff16815260200190600101908083116105e9575b5050505050905090565b604051806060016040528060008152602001600015158152602001600073ffffffffffffffffffffffffffffffffffffffff1681525090565b600081359050610685816109f6565b92915050565b60008135905061069a81610a0d565b92915050565b6000602082840312156106b257600080fd5b60006106c084828501610676565b91505092915050565b600080604083850312156106dc57600080fd5b60006106ea85828601610676565b92505060206106fb8582860161068b565b9150509250929050565b6000610711838361072c565b60208301905092915050565b610726816109c0565b82525050565b61073581610978565b82525050565b61074481610978565b82525050565b60006107558261093e565b61075f8185610956565b935061076a8361092e565b8060005b8381101561079b5781516107828882610705565b975061078d83610949565b92505060018101905061076e565b5085935050505092915050565b6107b18161098a565b82525050565b60006107c4601983610967565b91507f4e6f7420417574686f72697a6520746f206164642063617273000000000000006000830152602082019050919050565b6000610804601083610967565b91507f43617220616c726561647920736f6c64000000000000000000000000000000006000830152602082019050919050565b60608201600082015161084d6000850182610879565b50602082015161086060208501826107a8565b506040820151610873604085018261072c565b50505050565b610882816109b6565b82525050565b600060408201905061089d600083018561073b565b6108aa602083018461071d565b9392505050565b600060208201905081810360008301526108cb818461074a565b905092915050565b600060208201905081810360008301526108ec816107b7565b9050919050565b6000602082019050818103600083015261090c816107f7565b9050919050565b60006060820190506109286000830184610837565b92915050565b6000819050602082019050919050565b600081519050919050565b6000602082019050919050565b600082825260208201905092915050565b600082825260208201905092915050565b600061098382610996565b9050919050565b60008115159050919050565b600073ffffffffffffffffffffffffffffffffffffffff82169050919050565b6000819050919050565b60006109cb826109d2565b9050919050565b60006109dd826109e4565b9050919050565b60006109ef82610996565b9050919050565b6109ff81610978565b8114610a0a57600080fd5b50565b610a16816109b6565b8114610a2157600080fd5b5056fea365627a7a72315820cb96b7ddda5ff0928c66f8d1f60fcd1ac8b5bc55a7cf437247b1dd59b9f4c1a76c6578706572696d656e74616cf564736f6c63430005100040",
  "source": "// SPDX-License-Identifier: GPL-3.0\npragma solidity >=0.5.0;\npragma experimental ABIEncoderV2;\n\ncontract CarStore {\n    // declare storeOwner address\n    address storeOwner;\n    \n    // declare BuyCar event\n    event BuyCar(address _carId, address _buyerAddress);\n    \n    // declare a Car structure\n    struct Car {\n        uint256 price;\n        bool sold;\n        address buyerAddress;\n    }\n    // declare a mapping of Inventory with key of address that is carIdentity and value is Car structure\n    mapping (address=>Car) inventory;\n\n    // declare a carList array which track car\n    address[] carList;\n\n    // Here we are initializing storeOwner to address which deploy the contract\n    constructor() public {\n        storeOwner = msg.sender;\n    }\n    \n    // This function add car to inventory and carList array\n    function addCar(address _carId, uint256 _price) public {\n        require(msg.sender != address(0));\n        require(msg.sender == storeOwner, \"Not Authorize to add cars\");\n        inventory[_carId].price = _price;\n        inventory[_carId].sold = false;\n        inventory[_carId].buyerAddress = address(0);\n        carList.push(_carId);\n    }\n\n    // This function let sender buy car based on carId\n    function buyCar(address _carId) public {\n        require(inventory[_carId].sold == false, 'Car already sold');\n        inventory[_carId].sold = true;\n        inventory[_carId].buyerAddress = msg.sender;\n        emit BuyCar( _carId, msg.sender);\n    }\n    \n    // return list of cars registered for selling in store\n    function getCarList()public view returns( address  [] memory){\n        return carList;\n    }\n\n    // return car info based on carId\n    function getCar(address _carId)public view returns( Car memory){\n        return inventory[_carId];\n    }\n}\n",
  "sourcePath": "/home/deq/Documents/Blockchain/Assignment1/contracts/CarStore.sol",
  "compiler": {
    "name": "solc",
    "version": "0.5.16+commit.9c3226ce.Emscripten.clang"
  },
  "schemaVersion": "3.3.4",
  "updatedAt": "2021-04-09T09:59:58.620Z",
  "networkType": "ethereum",
  "devdoc": {
    "methods": {}
  },
  "userdoc": {
    "methods": {}
  }
}