{
  "contractName": "GoldERC20",
  "abi": [
    {
      "inputs": [
        {
          "internalType": "uint256",
          "name": "_initial_supply",
          "type": "uint256"
        }
      ],
      "stateMutability": "nonpayable",
      "type": "constructor"
    },
    {
      "anonymous": false,
      "inputs": [
        {
          "indexed": true,
          "internalType": "address",
          "name": "owner",
          "type": "address"
        },
        {
          "indexed": true,
          "internalType": "address",
          "name": "spender",
          "type": "address"
        },
        {
          "indexed": false,
          "internalType": "uint256",
          "name": "value",
          "type": "uint256"
        }
      ],
      "name": "Approval",
      "type": "event"
    },
    {
      "anonymous": false,
      "inputs": [
        {
          "indexed": true,
          "internalType": "address",
          "name": "from",
          "type": "address"
        },
        {
          "indexed": true,
          "internalType": "address",
          "name": "to",
          "type": "address"
        },
        {
          "indexed": false,
          "internalType": "uint256",
          "name": "value",
          "type": "uint256"
        }
      ],
      "name": "Transfer",
      "type": "event"
    },
    {
      "inputs": [
        {
          "internalType": "address",
          "name": "",
          "type": "address"
        },
        {
          "internalType": "address",
          "name": "",
          "type": "address"
        }
      ],
      "name": "allowances",
      "outputs": [
        {
          "internalType": "uint256",
          "name": "",
          "type": "uint256"
        }
      ],
      "stateMutability": "view",
      "type": "function"
    },
    {
      "inputs": [
        {
          "internalType": "address",
          "name": "",
          "type": "address"
        }
      ],
      "name": "balanceOf",
      "outputs": [
        {
          "internalType": "uint256",
          "name": "",
          "type": "uint256"
        }
      ],
      "stateMutability": "view",
      "type": "function"
    },
    {
      "inputs": [],
      "name": "decimals",
      "outputs": [
        {
          "internalType": "uint8",
          "name": "",
          "type": "uint8"
        }
      ],
      "stateMutability": "view",
      "type": "function"
    },
    {
      "inputs": [],
      "name": "name",
      "outputs": [
        {
          "internalType": "string",
          "name": "",
          "type": "string"
        }
      ],
      "stateMutability": "view",
      "type": "function"
    },
    {
      "inputs": [],
      "name": "symbol",
      "outputs": [
        {
          "internalType": "string",
          "name": "",
          "type": "string"
        }
      ],
      "stateMutability": "view",
      "type": "function"
    },
    {
      "inputs": [],
      "name": "totalSupply",
      "outputs": [
        {
          "internalType": "uint256",
          "name": "",
          "type": "uint256"
        }
      ],
      "stateMutability": "view",
      "type": "function"
    },
    {
      "inputs": [
        {
          "internalType": "address",
          "name": "_to",
          "type": "address"
        },
        {
          "internalType": "uint256",
          "name": "amount",
          "type": "uint256"
        }
      ],
      "name": "transfer",
      "outputs": [
        {
          "internalType": "bool",
          "name": "",
          "type": "bool"
        }
      ],
      "stateMutability": "nonpayable",
      "type": "function"
    },
    {
      "inputs": [
        {
          "internalType": "address",
          "name": "_from",
          "type": "address"
        },
        {
          "internalType": "address",
          "name": "_to",
          "type": "address"
        },
        {
          "internalType": "uint256",
          "name": "_value",
          "type": "uint256"
        }
      ],
      "name": "transferFrom",
      "outputs": [
        {
          "internalType": "bool",
          "name": "",
          "type": "bool"
        }
      ],
      "stateMutability": "nonpayable",
      "type": "function"
    },
    {
      "inputs": [
        {
          "internalType": "address",
          "name": "_spender",
          "type": "address"
        },
        {
          "internalType": "uint256",
          "name": "_value",
          "type": "uint256"
        }
      ],
      "name": "approve",
      "outputs": [
        {
          "internalType": "bool",
          "name": "",
          "type": "bool"
        }
      ],
      "stateMutability": "nonpayable",
      "type": "function"
    }
  ],
  "bytecode": "0x60806040526040518060400160405280600481526020017f474f4c4400000000000000000000000000000000000000000000000000000000815250600190805190602001906200005192919062000141565b506040518060400160405280600581526020017f474c443230000000000000000000000000000000000000000000000000000000815250600290805190602001906200009f92919062000141565b506008600360006101000a81548160ff021916908360ff160217905550348015620000c957600080fd5b5060405162000f4638038062000f468339818101604052810190620000ef919062000208565b8060008190555080600460003373ffffffffffffffffffffffffffffffffffffffff1673ffffffffffffffffffffffffffffffffffffffff1681526020019081526020016000208190555050620002bd565b8280546200014f906200023e565b90600052602060002090601f016020900481019282620001735760008555620001bf565b82601f106200018e57805160ff1916838001178555620001bf565b82800160010185558215620001bf579182015b82811115620001be578251825591602001919060010190620001a1565b5b509050620001ce9190620001d2565b5090565b5b80821115620001ed576000816000905550600101620001d3565b5090565b6000815190506200020281620002a3565b92915050565b6000602082840312156200021b57600080fd5b60006200022b84828501620001f1565b91505092915050565b6000819050919050565b600060028204905060018216806200025757607f821691505b602082108114156200026e576200026d62000274565b5b50919050565b7f4e487b7100000000000000000000000000000000000000000000000000000000600052602260045260246000fd5b620002ae8162000234565b8114620002ba57600080fd5b50565b610c7980620002cd6000396000f3fe608060405234801561001057600080fd5b50600436106100935760003560e01c8063313ce56711610066578063313ce5671461013457806355b6ed5c1461015257806370a082311461018257806395d89b41146101b2578063a9059cbb146101d057610093565b806306fdde0314610098578063095ea7b3146100b657806318160ddd146100e657806323b872dd14610104575b600080fd5b6100a0610200565b6040516100ad91906109ee565b60405180910390f35b6100d060048036038101906100cb9190610931565b61028e565b6040516100dd91906109d3565b60405180910390f35b6100ee610380565b6040516100fb9190610a10565b60405180910390f35b61011e600480360381019061011991906108e2565b610386565b60405161012b91906109d3565b60405180910390f35b61013c61060c565b6040516101499190610a2b565b60405180910390f35b61016c600480360381019061016791906108a6565b61061f565b6040516101799190610a10565b60405180910390f35b61019c6004803603810190610197919061087d565b610644565b6040516101a99190610a10565b60405180910390f35b6101ba61065c565b6040516101c791906109ee565b60405180910390f35b6101ea60048036038101906101e59190610931565b6106ea565b6040516101f791906109d3565b60405180910390f35b6001805461020d90610b74565b80601f016020809104026020016040519081016040528092919081815260200182805461023990610b74565b80156102865780601f1061025b57610100808354040283529160200191610286565b820191906000526020600020905b81548152906001019060200180831161026957829003601f168201915b505050505081565b600081600560003373ffffffffffffffffffffffffffffffffffffffff1673ffffffffffffffffffffffffffffffffffffffff16815260200190815260200160002060008573ffffffffffffffffffffffffffffffffffffffff1673ffffffffffffffffffffffffffffffffffffffff168152602001908152602001600020819055508273ffffffffffffffffffffffffffffffffffffffff163373ffffffffffffffffffffffffffffffffffffffff167f8c5be1e5ebec7d5bd14f71427d1e84f3dd0314c0f7b2291e5b200ac8c7c3b9258460405161036e9190610a10565b60405180910390a36001905092915050565b60005481565b6000600460008573ffffffffffffffffffffffffffffffffffffffff1673ffffffffffffffffffffffffffffffffffffffff168152602001908152602001600020548211156103d457600080fd5b600560008573ffffffffffffffffffffffffffffffffffffffff1673ffffffffffffffffffffffffffffffffffffffff16815260200190815260200160002060003373ffffffffffffffffffffffffffffffffffffffff1673ffffffffffffffffffffffffffffffffffffffff1681526020019081526020016000205482111561045d57600080fd5b81600460008673ffffffffffffffffffffffffffffffffffffffff1673ffffffffffffffffffffffffffffffffffffffff16815260200190815260200160002060008282546104ac9190610ab8565b9250508190555081600460008573ffffffffffffffffffffffffffffffffffffffff1673ffffffffffffffffffffffffffffffffffffffff16815260200190815260200160002060008282546105029190610a62565b9250508190555081600560008673ffffffffffffffffffffffffffffffffffffffff1673ffffffffffffffffffffffffffffffffffffffff16815260200190815260200160002060003373ffffffffffffffffffffffffffffffffffffffff1673ffffffffffffffffffffffffffffffffffffffff16815260200190815260200160002060008282546105959190610ab8565b925050819055508273ffffffffffffffffffffffffffffffffffffffff168473ffffffffffffffffffffffffffffffffffffffff167fddf252ad1be2c89b69c2b068fc378daa952ba7f163c4a11628f55a4df523b3ef846040516105f99190610a10565b60405180910390a3600190509392505050565b600360009054906101000a900460ff1681565b6005602052816000526040600020602052806000526040600020600091509150505481565b60046020528060005260406000206000915090505481565b6002805461066990610b74565b80601f016020809104026020016040519081016040528092919081815260200182805461069590610b74565b80156106e25780601f106106b7576101008083540402835291602001916106e2565b820191906000526020600020905b8154815290600101906020018083116106c557829003601f168201915b505050505081565b6000600460003373ffffffffffffffffffffffffffffffffffffffff1673ffffffffffffffffffffffffffffffffffffffff1681526020019081526020016000205482111561073857600080fd5b81600460003373ffffffffffffffffffffffffffffffffffffffff1673ffffffffffffffffffffffffffffffffffffffff16815260200190815260200160002060008282546107879190610ab8565b9250508190555081600460008573ffffffffffffffffffffffffffffffffffffffff1673ffffffffffffffffffffffffffffffffffffffff16815260200190815260200160002060008282546107dd9190610a62565b925050819055508273ffffffffffffffffffffffffffffffffffffffff163373ffffffffffffffffffffffffffffffffffffffff167fddf252ad1be2c89b69c2b068fc378daa952ba7f163c4a11628f55a4df523b3ef846040516108419190610a10565b60405180910390a36001905092915050565b60008135905061086281610c15565b92915050565b60008135905061087781610c2c565b92915050565b60006020828403121561088f57600080fd5b600061089d84828501610853565b91505092915050565b600080604083850312156108b957600080fd5b60006108c785828601610853565b92505060206108d885828601610853565b9150509250929050565b6000806000606084860312156108f757600080fd5b600061090586828701610853565b935050602061091686828701610853565b925050604061092786828701610868565b9150509250925092565b6000806040838503121561094457600080fd5b600061095285828601610853565b925050602061096385828601610868565b9150509250929050565b61097681610afe565b82525050565b600061098782610a46565b6109918185610a51565b93506109a1818560208601610b41565b6109aa81610c04565b840191505092915050565b6109be81610b2a565b82525050565b6109cd81610b34565b82525050565b60006020820190506109e8600083018461096d565b92915050565b60006020820190508181036000830152610a08818461097c565b905092915050565b6000602082019050610a2560008301846109b5565b92915050565b6000602082019050610a4060008301846109c4565b92915050565b600081519050919050565b600082825260208201905092915050565b6000610a6d82610b2a565b9150610a7883610b2a565b9250827fffffffffffffffffffffffffffffffffffffffffffffffffffffffffffffffff03821115610aad57610aac610ba6565b5b828201905092915050565b6000610ac382610b2a565b9150610ace83610b2a565b925082821015610ae157610ae0610ba6565b5b828203905092915050565b6000610af782610b0a565b9050919050565b60008115159050919050565b600073ffffffffffffffffffffffffffffffffffffffff82169050919050565b6000819050919050565b600060ff82169050919050565b60005b83811015610b5f578082015181840152602081019050610b44565b83811115610b6e576000848401525b50505050565b60006002820490506001821680610b8c57607f821691505b60208210811415610ba057610b9f610bd5565b5b50919050565b7f4e487b7100000000000000000000000000000000000000000000000000000000600052601160045260246000fd5b7f4e487b7100000000000000000000000000000000000000000000000000000000600052602260045260246000fd5b6000601f19601f8301169050919050565b610c1e81610aec565b8114610c2957600080fd5b50565b610c3581610b2a565b8114610c4057600080fd5b5056fea264697066735822122041eed6c94c8fe0a709c5dfe688a8e262286d1501f79bdff65242a49cdad5087c64736f6c63430008000033",
  "immutableReferences": {},
  "source": "// SPDX-License-Identifier: GPL-3.0\npragma solidity >=0.8.0;\n\n/// @title An ERC token for Gold\ncontract GoldERC20 {\n    /// @dev Returns the amount of tokens in existence.\n    uint256 public totalSupply;\n    /// @dev Returns the name of the token.\n    string public name = 'GOLD';\n    /// @dev Returns the symbol of the token.\n    string public symbol = 'GLD20';\n    /// @dev Returns the decimals places of the token.\n    uint8 public decimals = 8;\n\n    /// @dev Returns the amount of tokens owned by `account`\n    mapping(address => uint256) public balanceOf;\n    /// @dev Returns the remaining number of tokens that `spender` will be allowed to spend on behalf of `owner` through {transferFrom}. This is zero by default.\n    mapping(address => mapping(address => uint256)) public allowances;\n\n    /// @dev Emitted when `value` tokens are moved from one account (`from`) to another (`to`).\n    event Transfer(address indexed from, address indexed to, uint256 value);\n\n    /// @dev Emitted when the allowance of a `spender` for an `owner` is set by a call to {approve}. `value` is the new allowance.\n    event Approval(\n        address indexed owner,\n        address indexed spender,\n        uint256 value\n    );\n\n    constructor(uint256 _initial_supply) {\n        totalSupply = _initial_supply;\n        balanceOf[msg.sender] = _initial_supply;\n    }\n\n    /// @notice Transfers amount of tokens to address, and MUST fire the Transfer event.\n    /// @dev Moves `amount` tokens from the caller's account to `recipient`. Emits a {Transfer} event.\n    /// @return Returns a boolean value indicating whether the operation succeeded.\n    function transfer(address _to, uint256 amount) external returns (bool) {\n        require(amount <= balanceOf[msg.sender]);\n        balanceOf[msg.sender] -= amount;\n        balanceOf[_to] += amount;\n\n        emit Transfer(msg.sender, _to, amount);\n\n        return true;\n    }\n\n    /// @notice Transfers amount of tokens from address `_from` to address `_to`, and MUST fire the Transfer event.\n    /// @dev Moves `amount` tokens from `sender` to `recipient` using the allowance mechanism. `amount` is then deducted from the caller's allowance. Emits a {Transfer} event.\n    /// @return Returns a boolean value indicating whether the operation succeeded.\n    function transferFrom(\n        address _from,\n        address _to,\n        uint256 _value\n    ) external returns (bool) {\n        require(_value <= balanceOf[_from]);\n        require(_value <= allowances[_from][msg.sender]);\n        balanceOf[_from] -= _value;\n        balanceOf[_to] += _value;\n        allowances[_from][msg.sender] -= _value;\n\n        emit Transfer(_from, _to, _value);\n\n        return true;\n    }\n\n    /// @notice Allows _spender to withdraw from your account multiple times, up to the _value amount. If this function is called again it overwrites the current allowance with _value.\n    /// @dev Sets `amount` as the allowance of `spender` over the caller's tokens. Emits an {Approval} event.\n    /// @return Returns a boolean value indicating whether the operation succeeded.\n    function approve(address _spender, uint256 _value) public returns (bool) {\n        allowances[msg.sender][_spender] = _value;\n        Approval(msg.sender, _spender, _value);\n        return true;\n    }\n}\n",
  "sourcePath": "/home/deq/Documents/Blockchain/Assignment1/contracts/GoldERC20.sol",
  "compiler": {
    "name": "solc",
    "version": "0.8.0+commit.c7dfd78e.Emscripten.clang"
  },
  "schemaVersion": "3.3.4",
  "updatedAt": "2021-04-12T14:34:59.974Z",
  "devdoc": {
    "events": {
      "Approval(address,address,uint256)": {
        "details": "Emitted when the allowance of a `spender` for an `owner` is set by a call to {approve}. `value` is the new allowance."
      },
      "Transfer(address,address,uint256)": {
        "details": "Emitted when `value` tokens are moved from one account (`from`) to another (`to`)."
      }
    },
    "kind": "dev",
    "methods": {
      "approve(address,uint256)": {
        "details": "Sets `amount` as the allowance of `spender` over the caller's tokens. Emits an {Approval} event.",
        "returns": {
          "_0": "Returns a boolean value indicating whether the operation succeeded."
        }
      },
      "transfer(address,uint256)": {
        "details": "Moves `amount` tokens from the caller's account to `recipient`. Emits a {Transfer} event.",
        "returns": {
          "_0": "Returns a boolean value indicating whether the operation succeeded."
        }
      },
      "transferFrom(address,address,uint256)": {
        "details": "Moves `amount` tokens from `sender` to `recipient` using the allowance mechanism. `amount` is then deducted from the caller's allowance. Emits a {Transfer} event.",
        "returns": {
          "_0": "Returns a boolean value indicating whether the operation succeeded."
        }
      }
    },
    "stateVariables": {
      "allowances": {
        "details": "Returns the remaining number of tokens that `spender` will be allowed to spend on behalf of `owner` through {transferFrom}. This is zero by default."
      },
      "balanceOf": {
        "details": "Returns the amount of tokens owned by `account`"
      },
      "decimals": {
        "details": "Returns the decimals places of the token."
      },
      "name": {
        "details": "Returns the name of the token."
      },
      "symbol": {
        "details": "Returns the symbol of the token."
      },
      "totalSupply": {
        "details": "Returns the amount of tokens in existence."
      }
    },
    "title": "An ERC token for Gold",
    "version": 1
  },
  "userdoc": {
    "kind": "user",
    "methods": {
      "approve(address,uint256)": {
        "notice": "Allows _spender to withdraw from your account multiple times, up to the _value amount. If this function is called again it overwrites the current allowance with _value."
      },
      "transfer(address,uint256)": {
        "notice": "Transfers amount of tokens to address, and MUST fire the Transfer event."
      },
      "transferFrom(address,address,uint256)": {
        "notice": "Transfers amount of tokens from address `_from` to address `_to`, and MUST fire the Transfer event."
      }
    },
    "version": 1
  }
}