{
  "contractName": "TokenFactory",
  "abi": [
    {
      "anonymous": false,
      "inputs": [
        {
          "indexed": false,
          "internalType": "bool",
          "name": "success",
          "type": "bool"
        }
      ],
      "name": "AddedValuesByDelegateCall",
      "type": "event"
    },
    {
      "anonymous": false,
      "inputs": [
        {
          "indexed": true,
          "internalType": "address",
          "name": "_token",
          "type": "address"
        },
        {
          "indexed": true,
          "internalType": "address",
          "name": "_owner",
          "type": "address"
        },
        {
          "indexed": true,
          "internalType": "address",
          "name": "_spender",
          "type": "address"
        },
        {
          "indexed": false,
          "internalType": "uint256",
          "name": "_value",
          "type": "uint256"
        }
      ],
      "name": "Approval",
      "type": "event"
    },
    {
      "anonymous": false,
      "inputs": [
        {
          "indexed": true,
          "internalType": "address",
          "name": "previousOwner",
          "type": "address"
        },
        {
          "indexed": true,
          "internalType": "address",
          "name": "newOwner",
          "type": "address"
        }
      ],
      "name": "OwnershipTransferred",
      "type": "event"
    },
    {
      "anonymous": false,
      "inputs": [
        {
          "indexed": true,
          "internalType": "address",
          "name": "_token",
          "type": "address"
        },
        {
          "indexed": true,
          "internalType": "address",
          "name": "_from",
          "type": "address"
        },
        {
          "indexed": true,
          "internalType": "address",
          "name": "_to",
          "type": "address"
        },
        {
          "indexed": false,
          "internalType": "uint256",
          "name": "_value",
          "type": "uint256"
        }
      ],
      "name": "Transfer",
      "type": "event"
    },
    {
      "anonymous": false,
      "inputs": [
        {
          "indexed": false,
          "internalType": "address",
          "name": "contractOwner",
          "type": "address"
        },
        {
          "indexed": false,
          "internalType": "address",
          "name": "sender",
          "type": "address"
        }
      ],
      "name": "consoleLog",
      "type": "event"
    },
    {
      "inputs": [],
      "name": "owner",
      "outputs": [
        {
          "internalType": "address",
          "name": "",
          "type": "address"
        }
      ],
      "stateMutability": "view",
      "type": "function",
      "constant": true
    },
    {
      "inputs": [],
      "name": "renounceOwnership",
      "outputs": [],
      "stateMutability": "nonpayable",
      "type": "function"
    },
    {
      "inputs": [
        {
          "internalType": "uint256",
          "name": "",
          "type": "uint256"
        }
      ],
      "name": "tokenAddresses",
      "outputs": [
        {
          "internalType": "contract Token",
          "name": "",
          "type": "address"
        }
      ],
      "stateMutability": "view",
      "type": "function",
      "constant": true
    },
    {
      "inputs": [
        {
          "internalType": "address",
          "name": "newOwner",
          "type": "address"
        }
      ],
      "name": "transferOwnership",
      "outputs": [],
      "stateMutability": "nonpayable",
      "type": "function"
    },
    {
      "inputs": [
        {
          "internalType": "string",
          "name": "name_",
          "type": "string"
        },
        {
          "internalType": "string",
          "name": "symbol_",
          "type": "string"
        },
        {
          "internalType": "address",
          "name": "minter_",
          "type": "address"
        },
        {
          "internalType": "address",
          "name": "burner_",
          "type": "address"
        }
      ],
      "name": "createToken",
      "outputs": [
        {
          "internalType": "contract Token",
          "name": "tokenAddress",
          "type": "address"
        }
      ],
      "stateMutability": "nonpayable",
      "type": "function"
    },
    {
      "inputs": [
        {
          "internalType": "address",
          "name": "_token",
          "type": "address"
        },
        {
          "internalType": "address",
          "name": "_owner",
          "type": "address"
        }
      ],
      "name": "balanceOf",
      "outputs": [
        {
          "internalType": "uint256",
          "name": "balance",
          "type": "uint256"
        }
      ],
      "stateMutability": "view",
      "type": "function",
      "constant": true
    },
    {
      "inputs": [
        {
          "internalType": "address",
          "name": "_token",
          "type": "address"
        },
        {
          "internalType": "address",
          "name": "_to",
          "type": "address"
        },
        {
          "internalType": "uint256",
          "name": "_value",
          "type": "uint256"
        }
      ],
      "name": "mintCoins",
      "outputs": [
        {
          "internalType": "bool",
          "name": "success",
          "type": "bool"
        }
      ],
      "stateMutability": "nonpayable",
      "type": "function"
    },
    {
      "inputs": [
        {
          "internalType": "address",
          "name": "_token",
          "type": "address"
        },
        {
          "internalType": "address",
          "name": "_to",
          "type": "address"
        },
        {
          "internalType": "uint256",
          "name": "_value",
          "type": "uint256"
        }
      ],
      "name": "mintOld",
      "outputs": [
        {
          "internalType": "bool",
          "name": "success",
          "type": "bool"
        }
      ],
      "stateMutability": "nonpayable",
      "type": "function"
    },
    {
      "inputs": [
        {
          "internalType": "address",
          "name": "_token",
          "type": "address"
        },
        {
          "internalType": "address",
          "name": "_to",
          "type": "address"
        },
        {
          "internalType": "uint256",
          "name": "_value",
          "type": "uint256"
        }
      ],
      "name": "transfer",
      "outputs": [
        {
          "internalType": "bool",
          "name": "success",
          "type": "bool"
        }
      ],
      "stateMutability": "nonpayable",
      "type": "function"
    },
    {
      "inputs": [
        {
          "internalType": "address",
          "name": "_token",
          "type": "address"
        },
        {
          "internalType": "address",
          "name": "_from",
          "type": "address"
        },
        {
          "internalType": "address",
          "name": "_to",
          "type": "address"
        },
        {
          "internalType": "uint256",
          "name": "_value",
          "type": "uint256"
        }
      ],
      "name": "transferFrom",
      "outputs": [
        {
          "internalType": "bool",
          "name": "success",
          "type": "bool"
        }
      ],
      "stateMutability": "nonpayable",
      "type": "function"
    },
    {
      "inputs": [
        {
          "internalType": "address",
          "name": "_token",
          "type": "address"
        },
        {
          "internalType": "address",
          "name": "_spender",
          "type": "address"
        },
        {
          "internalType": "uint256",
          "name": "_value",
          "type": "uint256"
        }
      ],
      "name": "approve",
      "outputs": [
        {
          "internalType": "bool",
          "name": "success",
          "type": "bool"
        }
      ],
      "stateMutability": "nonpayable",
      "type": "function"
    },
    {
      "inputs": [
        {
          "internalType": "address",
          "name": "_token",
          "type": "address"
        },
        {
          "internalType": "address",
          "name": "_owner",
          "type": "address"
        },
        {
          "internalType": "address",
          "name": "_spender",
          "type": "address"
        }
      ],
      "name": "allowance",
      "outputs": [
        {
          "internalType": "uint256",
          "name": "remaining",
          "type": "uint256"
        }
      ],
      "stateMutability": "view",
      "type": "function",
      "constant": true
    }
  ],
  "bytecode": "0x608060405234801561001057600080fd5b5060006100216100c460201b60201c565b9050806000806101000a81548173ffffffffffffffffffffffffffffffffffffffff021916908373ffffffffffffffffffffffffffffffffffffffff1602179055508073ffffffffffffffffffffffffffffffffffffffff16600073ffffffffffffffffffffffffffffffffffffffff167f8be0079c531659141344cd1fd0a4f28419497f9722a3daafe3b4186f6b6457e060405160405180910390a3506100cc565b600033905090565b61476f806100db6000396000f3fe60806040523480156200001157600080fd5b5060043610620000c45760003560e01c8063beabacc8116200007b578063beabacc814620001cf578063c01547361462000205578063e1f21c67146200023b578063e5df8b841462000271578063f2fde38b14620002a7578063f7888aec14620002c757620000c4565b806315dacbea14620000c95780634038137a14620000ff578063715018a614620001355780638060c4ae14620001415780638da5cb5b1462000177578063927da1051462000199575b600080fd5b620000e76004803603810190620000e1919062001823565b620002fd565b604051620000f6919062001d42565b60405180910390f35b6200011d60048036038101906200011791906200188f565b62000592565b6040516200012c919062001d42565b60405180910390f35b6200013f6200074d565b005b6200015f60048036038101906200015991906200188f565b6200088e565b6040516200016e919062001d42565b60405180910390f35b6200018162000ab0565b60405162000190919062001c8e565b60405180910390f35b620001b76004803603810190620001b19190620017cd565b62000ad9565b604051620001c6919062001ea3565b60405180910390f35b620001ed6004803603810190620001e791906200188f565b62000c34565b604051620001fc919062001d42565b60405180910390f35b6200022360048036038101906200021d919062001911565b62000ec6565b60405162000232919062001d5f565b60405180910390f35b6200025960048036038101906200025391906200188f565b62001038565b60405162000268919062001d42565b60405180910390f35b6200028f6004803603810190620002899190620019af565b62001216565b6040516200029e919062001d5f565b60405180910390f35b620002c56004803603810190620002bf919062001760565b62001256565b005b620002e56004803603810190620002df91906200178c565b62001409565b604051620002f4919062001ea3565b60405180910390f35b6000806001805490501162000349576040517f08c379a0000000000000000000000000000000000000000000000000000000008152600401620003409062001e81565b60405180910390fd5b6000620003568662001561565b90506000806001838154811062000396577f4e487b7100000000000000000000000000000000000000000000000000000000600052603260045260246000fd5b9060005260206000200160009054906101000a900473ffffffffffffffffffffffffffffffffffffffff1673ffffffffffffffffffffffffffffffffffffffff16878787604051602401620003ee9392919062001cd8565b6040516020818303038152906040527f23b872dd000000000000000000000000000000000000000000000000000000007bffffffffffffffffffffffffffffffffffffffffffffffffffffffff19166020820180517bffffffffffffffffffffffffffffffffffffffffffffffffffffffff83818316178352505050506040516200047a919062001c75565b600060405180830381855af49150503d8060008114620004b7576040519150601f19603f3d011682016040523d82523d6000602084013e620004bc565b606091505b5091509150811562000505576040517f08c379a0000000000000000000000000000000000000000000000000000000008152600401620004fc9062001df9565b60405180910390fd5b8573ffffffffffffffffffffffffffffffffffffffff163373ffffffffffffffffffffffffffffffffffffffff168973ffffffffffffffffffffffffffffffffffffffff167fd1398bee19313d6bf672ccb116e51f4a1a947e91c757907f51fbb5b5e56c698f886040516200057b919062001ea3565b60405180910390a460019350505050949350505050565b60008060018054905011620005de576040517f08c379a0000000000000000000000000000000000000000000000000000000008152600401620005d59062001e81565b60405180910390fd5b6000620005eb8562001561565b90506001818154811062000628577f4e487b7100000000000000000000000000000000000000000000000000000000600052603260045260246000fd5b9060005260206000200160009054906101000a900473ffffffffffffffffffffffffffffffffffffffff1673ffffffffffffffffffffffffffffffffffffffff1663b7fde9da85856040518363ffffffff1660e01b81526004016200068f92919062001d15565b600060405180830381600087803b158015620006aa57600080fd5b505af1158015620006bf573d6000803e3d6000fd5b505050508373ffffffffffffffffffffffffffffffffffffffff163373ffffffffffffffffffffffffffffffffffffffff168673ffffffffffffffffffffffffffffffffffffffff167fd1398bee19313d6bf672ccb116e51f4a1a947e91c757907f51fbb5b5e56c698f8660405162000739919062001ea3565b60405180910390a460019150509392505050565b620007576200167c565b73ffffffffffffffffffffffffffffffffffffffff166200077762000ab0565b73ffffffffffffffffffffffffffffffffffffffff1614620007d0576040517f08c379a0000000000000000000000000000000000000000000000000000000008152600401620007c79062001e1b565b60405180910390fd5b600073ffffffffffffffffffffffffffffffffffffffff1660008054906101000a900473ffffffffffffffffffffffffffffffffffffffff1673ffffffffffffffffffffffffffffffffffffffff167f8be0079c531659141344cd1fd0a4f28419497f9722a3daafe3b4186f6b6457e060405160405180910390a360008060006101000a81548173ffffffffffffffffffffffffffffffffffffffff021916908373ffffffffffffffffffffffffffffffffffffffff160217905550565b60008060018054905011620008da576040517f08c379a0000000000000000000000000000000000000000000000000000000008152600401620008d19062001e81565b60405180910390fd5b6000620008e78562001561565b90506000808673ffffffffffffffffffffffffffffffffffffffff1686866040516024016200091892919062001d15565b6040516020818303038152906040527fb7fde9da000000000000000000000000000000000000000000000000000000007bffffffffffffffffffffffffffffffffffffffffffffffffffffffff19166020820180517bffffffffffffffffffffffffffffffffffffffffffffffffffffffff8381831617835250505050604051620009a4919062001c75565b600060405180830381855af49150503d8060008114620009e1576040519150601f19603f3d011682016040523d82523d6000602084013e620009e6565b606091505b50915091507f66a8c88c9e1f9fcaeef9309db4a2b7c965254d9c095193f69dbe85a925fb519a8260405162000a1c919062001d42565b60405180910390a18573ffffffffffffffffffffffffffffffffffffffff163373ffffffffffffffffffffffffffffffffffffffff168873ffffffffffffffffffffffffffffffffffffffff167fd1398bee19313d6bf672ccb116e51f4a1a947e91c757907f51fbb5b5e56c698f8860405162000a9a919062001ea3565b60405180910390a4600193505050509392505050565b60008060009054906101000a900473ffffffffffffffffffffffffffffffffffffffff16905090565b6000806001805490501162000b25576040517f08c379a000000000000000000000000000000000000000000000000000000000815260040162000b1c9062001e81565b60405180910390fd5b600062000b328562001561565b90506001818154811062000b6f577f4e487b7100000000000000000000000000000000000000000000000000000000600052603260045260246000fd5b9060005260206000200160009054906101000a900473ffffffffffffffffffffffffffffffffffffffff1673ffffffffffffffffffffffffffffffffffffffff1663dd62ed3e85856040518363ffffffff1660e01b815260040162000bd692919062001cab565b60206040518083038186803b15801562000bef57600080fd5b505afa15801562000c04573d6000803e3d6000fd5b505050506040513d601f19601f8201168201806040525081019062000c2a9190620019db565b9150509392505050565b6000806001805490501162000c80576040517f08c379a000000000000000000000000000000000000000000000000000000000815260040162000c779062001e81565b60405180910390fd5b600062000c8d8562001561565b90506000806001838154811062000ccd577f4e487b7100000000000000000000000000000000000000000000000000000000600052603260045260246000fd5b9060005260206000200160009054906101000a900473ffffffffffffffffffffffffffffffffffffffff1673ffffffffffffffffffffffffffffffffffffffff16868660405160240162000d2392919062001d15565b6040516020818303038152906040527fa9059cbb000000000000000000000000000000000000000000000000000000007bffffffffffffffffffffffffffffffffffffffffffffffffffffffff19166020820180517bffffffffffffffffffffffffffffffffffffffffffffffffffffffff838183161783525050505060405162000daf919062001c75565b600060405180830381855af49150503d806000811462000dec576040519150601f19603f3d011682016040523d82523d6000602084013e62000df1565b606091505b5091509150811562000e3a576040517f08c379a000000000000000000000000000000000000000000000000000000000815260040162000e319062001e3d565b60405180910390fd5b8573ffffffffffffffffffffffffffffffffffffffff163373ffffffffffffffffffffffffffffffffffffffff168873ffffffffffffffffffffffffffffffffffffffff167fd1398bee19313d6bf672ccb116e51f4a1a947e91c757907f51fbb5b5e56c698f8860405162000eb0919062001ea3565b60405180910390a4600193505050509392505050565b600062000ed26200167c565b73ffffffffffffffffffffffffffffffffffffffff1662000ef262000ab0565b73ffffffffffffffffffffffffffffffffffffffff161462000f4b576040517f08c379a000000000000000000000000000000000000000000000000000000000815260040162000f429062001e1b565b60405180910390fd5b60008585858560405162000f5f9062001684565b62000f6e949392919062001d7c565b604051809103906000f08015801562000f8b573d6000803e3d6000fd5b5090506001819080600181540180825580915050600190039060005260206000200160009091909190916101000a81548173ffffffffffffffffffffffffffffffffffffffff021916908373ffffffffffffffffffffffffffffffffffffffff1602179055507f3a8e946fb73a33530fbcc329b31a82a6da65315b04b0ba0e323b0ad0df62ad0730826040516200102492919062001cab565b60405180910390a180915050949350505050565b6000806001805490501162001084576040517f08c379a00000000000000000000000000000000000000000000000000000000081526004016200107b9062001e81565b60405180910390fd5b6000620010918562001561565b905060018181548110620010ce577f4e487b7100000000000000000000000000000000000000000000000000000000600052603260045260246000fd5b9060005260206000200160009054906101000a900473ffffffffffffffffffffffffffffffffffffffff1673ffffffffffffffffffffffffffffffffffffffff1663095ea7b385856040518363ffffffff1660e01b81526004016200113592919062001d15565b602060405180830381600087803b1580156200115057600080fd5b505af115801562001165573d6000803e3d6000fd5b505050506040513d601f19601f820116820180604052508101906200118b9190620018e5565b508373ffffffffffffffffffffffffffffffffffffffff163373ffffffffffffffffffffffffffffffffffffffff168673ffffffffffffffffffffffffffffffffffffffff167fa0175360a15bca328baf7ea85c7b784d58b222a50d0ce760b10dba336d226a618660405162001202919062001ea3565b60405180910390a460019150509392505050565b600181815481106200122757600080fd5b906000526020600020016000915054906101000a900473ffffffffffffffffffffffffffffffffffffffff1681565b620012606200167c565b73ffffffffffffffffffffffffffffffffffffffff166200128062000ab0565b73ffffffffffffffffffffffffffffffffffffffff1614620012d9576040517f08c379a0000000000000000000000000000000000000000000000000000000008152600401620012d09062001e1b565b60405180910390fd5b600073ffffffffffffffffffffffffffffffffffffffff168173ffffffffffffffffffffffffffffffffffffffff1614156200134c576040517f08c379a0000000000000000000000000000000000000000000000000000000008152600401620013439062001dd7565b60405180910390fd5b8073ffffffffffffffffffffffffffffffffffffffff1660008054906101000a900473ffffffffffffffffffffffffffffffffffffffff1673ffffffffffffffffffffffffffffffffffffffff167f8be0079c531659141344cd1fd0a4f28419497f9722a3daafe3b4186f6b6457e060405160405180910390a3806000806101000a81548173ffffffffffffffffffffffffffffffffffffffff021916908373ffffffffffffffffffffffffffffffffffffffff16021790555050565b6000806001805490501162001455576040517f08c379a00000000000000000000000000000000000000000000000000000000081526004016200144c9062001e81565b60405180910390fd5b6000620014628462001561565b9050600181815481106200149f577f4e487b7100000000000000000000000000000000000000000000000000000000600052603260045260246000fd5b9060005260206000200160009054906101000a900473ffffffffffffffffffffffffffffffffffffffff1673ffffffffffffffffffffffffffffffffffffffff166370a08231846040518263ffffffff1660e01b815260040162001504919062001c8e565b60206040518083038186803b1580156200151d57600080fd5b505afa15801562001532573d6000803e3d6000fd5b505050506040513d601f19601f82011682018060405250810190620015589190620019db565b91505092915050565b600080600090505b60018054905081101562001631578273ffffffffffffffffffffffffffffffffffffffff1660018281548110620015c9577f4e487b7100000000000000000000000000000000000000000000000000000000600052603260045260246000fd5b9060005260206000200160009054906101000a900473ffffffffffffffffffffffffffffffffffffffff1673ffffffffffffffffffffffffffffffffffffffff1614156200161b578091505062001677565b8080620016289062002010565b91505062001569565b50600062001676576040517f08c379a00000000000000000000000000000000000000000000000000000000081526004016200166d9062001e5f565b60405180910390fd5b5b919050565b600033905090565b61261e806200211c83390190565b6000620016a9620016a38462001ef4565b62001ec0565b905082815260208101848484011115620016c257600080fd5b620016cf84828562001fcb565b509392505050565b600081359050620016e881620020cd565b92915050565b600081519050620016ff81620020e7565b92915050565b600082601f8301126200171757600080fd5b81356200172984826020860162001692565b91505092915050565b600081359050620017438162002101565b92915050565b6000815190506200175a8162002101565b92915050565b6000602082840312156200177357600080fd5b60006200178384828501620016d7565b91505092915050565b60008060408385031215620017a057600080fd5b6000620017b085828601620016d7565b9250506020620017c385828601620016d7565b9150509250929050565b600080600060608486031215620017e357600080fd5b6000620017f386828701620016d7565b93505060206200180686828701620016d7565b92505060406200181986828701620016d7565b9150509250925092565b600080600080608085870312156200183a57600080fd5b60006200184a87828801620016d7565b94505060206200185d87828801620016d7565b93505060406200187087828801620016d7565b9250506060620018838782880162001732565b91505092959194509250565b600080600060608486031215620018a557600080fd5b6000620018b586828701620016d7565b9350506020620018c886828701620016d7565b9250506040620018db8682870162001732565b9150509250925092565b600060208284031215620018f857600080fd5b60006200190884828501620016ee565b91505092915050565b600080600080608085870312156200192857600080fd5b600085013567ffffffffffffffff8111156200194357600080fd5b620019518782880162001705565b945050602085013567ffffffffffffffff8111156200196f57600080fd5b6200197d8782880162001705565b93505060406200199087828801620016d7565b9250506060620019a387828801620016d7565b91505092959194509250565b600060208284031215620019c257600080fd5b6000620019d28482850162001732565b91505092915050565b600060208284031215620019ee57600080fd5b6000620019fe8482850162001749565b91505092915050565b62001a128162001f59565b82525050565b62001a238162001f6d565b82525050565b600062001a368262001f27565b62001a42818562001f3d565b935062001a5481856020860162001fda565b80840191505092915050565b62001a6b8162001fa3565b82525050565b600062001a7e8262001f32565b62001a8a818562001f48565b935062001a9c81856020860162001fda565b62001aa781620020bc565b840191505092915050565b600062001ac160268362001f48565b91507f4f776e61626c653a206e6577206f776e657220697320746865207a65726f206160008301527f64647265737300000000000000000000000000000000000000000000000000006020830152604082019050919050565b600062001b2960198362001f48565b91507f43616e6e6f74207472616e7366657246726f6d20746f6b656e000000000000006000830152602082019050919050565b600062001b6b60208362001f48565b91507f4f776e61626c653a2063616c6c6572206973206e6f7420746865206f776e65726000830152602082019050919050565b600062001bad60158362001f48565b91507f43616e6e6f74207472616e7366657220746f6b656e00000000000000000000006000830152602082019050919050565b600062001bef60118362001f48565b91507f746f6b656e206e6f742070726573656e740000000000000000000000000000006000830152602082019050919050565b600062001c3160158362001f48565b91507f4e6f20746f6b656e73206172652070726573656e7400000000000000000000006000830152602082019050919050565b62001c6f8162001f99565b82525050565b600062001c83828462001a29565b915081905092915050565b600060208201905062001ca5600083018462001a07565b92915050565b600060408201905062001cc2600083018562001a07565b62001cd1602083018462001a07565b9392505050565b600060608201905062001cef600083018662001a07565b62001cfe602083018562001a07565b62001d0d604083018462001c64565b949350505050565b600060408201905062001d2c600083018562001a07565b62001d3b602083018462001c64565b9392505050565b600060208201905062001d59600083018462001a18565b92915050565b600060208201905062001d76600083018462001a60565b92915050565b6000608082019050818103600083015262001d98818762001a71565b9050818103602083015262001dae818662001a71565b905062001dbf604083018562001a07565b62001dce606083018462001a07565b95945050505050565b6000602082019050818103600083015262001df28162001ab2565b9050919050565b6000602082019050818103600083015262001e148162001b1a565b9050919050565b6000602082019050818103600083015262001e368162001b5c565b9050919050565b6000602082019050818103600083015262001e588162001b9e565b9050919050565b6000602082019050818103600083015262001e7a8162001be0565b9050919050565b6000602082019050818103600083015262001e9c8162001c22565b9050919050565b600060208201905062001eba600083018462001c64565b92915050565b6000604051905081810181811067ffffffffffffffff8211171562001eea5762001ee96200208d565b5b8060405250919050565b600067ffffffffffffffff82111562001f125762001f116200208d565b5b601f19601f8301169050602081019050919050565b600081519050919050565b600081519050919050565b600081905092915050565b600082825260208201905092915050565b600062001f668262001f79565b9050919050565b60008115159050919050565b600073ffffffffffffffffffffffffffffffffffffffff82169050919050565b6000819050919050565b600062001fb08262001fb7565b9050919050565b600062001fc48262001f79565b9050919050565b82818337600083830152505050565b60005b8381101562001ffa57808201518184015260208101905062001fdd565b838111156200200a576000848401525b50505050565b60006200201d8262001f99565b91507fffffffffffffffffffffffffffffffffffffffffffffffffffffffffffffffff8214156200205357620020526200205e565b5b600182019050919050565b7f4e487b7100000000000000000000000000000000000000000000000000000000600052601160045260246000fd5b7f4e487b7100000000000000000000000000000000000000000000000000000000600052604160045260246000fd5b6000601f19601f8301169050919050565b620020d88162001f59565b8114620020e457600080fd5b50565b620020f28162001f6d565b8114620020fe57600080fd5b50565b6200210c8162001f99565b81146200211857600080fd5b5056fe60806040526000600560146101000a81548160ff0219169083151502179055503480156200002c57600080fd5b506040516200261e3803806200261e833981810160405281019062000052919062000306565b838381600390805190602001906200006c929190620001cd565b50806004908051906020019062000085929190620001cd565b50505060006200009a620001c560201b60201c565b905080600560006101000a81548173ffffffffffffffffffffffffffffffffffffffff021916908373ffffffffffffffffffffffffffffffffffffffff1602179055508073ffffffffffffffffffffffffffffffffffffffff16600073ffffffffffffffffffffffffffffffffffffffff167f8be0079c531659141344cd1fd0a4f28419497f9722a3daafe3b4186f6b6457e060405160405180910390a35081600760006101000a81548173ffffffffffffffffffffffffffffffffffffffff021916908373ffffffffffffffffffffffffffffffffffffffff16021790555080600660006101000a81548173ffffffffffffffffffffffffffffffffffffffff021916908373ffffffffffffffffffffffffffffffffffffffff1602179055505050505062000523565b600033905090565b828054620001db9062000475565b90600052602060002090601f016020900481019282620001ff57600085556200024b565b82601f106200021a57805160ff19168380011785556200024b565b828001600101855582156200024b579182015b828111156200024a5782518255916020019190600101906200022d565b5b5090506200025a91906200025e565b5090565b5b80821115620002795760008160009055506001016200025f565b5090565b6000620002946200028e84620003d8565b620003a4565b905082815260208101848484011115620002ad57600080fd5b620002ba8482856200043f565b509392505050565b600081519050620002d38162000509565b92915050565b600082601f830112620002eb57600080fd5b8151620002fd8482602086016200027d565b91505092915050565b600080600080608085870312156200031d57600080fd5b600085015167ffffffffffffffff8111156200033857600080fd5b6200034687828801620002d9565b945050602085015167ffffffffffffffff8111156200036457600080fd5b6200037287828801620002d9565b93505060406200038587828801620002c2565b92505060606200039887828801620002c2565b91505092959194509250565b6000604051905081810181811067ffffffffffffffff82111715620003ce57620003cd620004da565b5b8060405250919050565b600067ffffffffffffffff821115620003f657620003f5620004da565b5b601f19601f8301169050602081019050919050565b600062000418826200041f565b9050919050565b600073ffffffffffffffffffffffffffffffffffffffff82169050919050565b60005b838110156200045f57808201518184015260208101905062000442565b838111156200046f576000848401525b50505050565b600060028204905060018216806200048e57607f821691505b60208210811415620004a557620004a4620004ab565b5b50919050565b7f4e487b7100000000000000000000000000000000000000000000000000000000600052602260045260246000fd5b7f4e487b7100000000000000000000000000000000000000000000000000000000600052604160045260246000fd5b62000514816200040b565b81146200052057600080fd5b50565b6120eb80620005336000396000f3fe608060405234801561001057600080fd5b506004361061010b5760003560e01c8063715018a6116100a2578063a9059cbb11610071578063a9059cbb146102bc578063b7fde9da146102ec578063bedb86fb14610308578063dd62ed3e14610324578063f2fde38b146103545761010b565b8063715018a6146102465780638da5cb5b1461025057806395d89b411461026e578063a457c2d71461028c5761010b565b806323b872dd116100de57806323b872dd14610198578063313ce567146101c857806339509351146101e657806370a08231146102165761010b565b806306fdde0314610110578063095ea7b31461012e57806318160ddd1461015e5780631cf2c7e21461017c575b600080fd5b610118610370565b6040516101259190611c69565b60405180910390f35b610148600480360381019061014391906115d1565b610402565b6040516101559190611c4e565b60405180910390f35b610166610420565b6040516101739190611e6b565b60405180910390f35b610196600480360381019061019191906115d1565b61042a565b005b6101b260048036038101906101ad9190611582565b610518565b6040516101bf9190611c4e565b60405180910390f35b6101d0610619565b6040516101dd9190611e86565b60405180910390f35b61020060048036038101906101fb91906115d1565b610622565b60405161020d9190611c4e565b60405180910390f35b610230600480360381019061022b919061151d565b6106ce565b60405161023d9190611e6b565b60405180910390f35b61024e610716565b005b610258610853565b6040516102659190611c33565b60405180910390f35b61027661087d565b6040516102839190611c69565b60405180910390f35b6102a660048036038101906102a191906115d1565b61090f565b6040516102b39190611c4e565b60405180910390f35b6102d660048036038101906102d191906115d1565b610a03565b6040516102e39190611c4e565b60405180910390f35b610306600480360381019061030191906115d1565b610a21565b005b610322600480360381019061031d919061160d565b610b0f565b005b61033e60048036038101906103399190611546565b610b2c565b60405161034b9190611e6b565b60405180910390f35b61036e6004803603810190610369919061151d565b610bb3565b005b60606003805461037f90611fcf565b80601f01602080910402602001604051908101604052809291908181526020018280546103ab90611fcf565b80156103f85780601f106103cd576101008083540402835291602001916103f8565b820191906000526020600020905b8154815290600101906020018083116103db57829003601f168201915b5050505050905090565b600061041661040f610d5f565b8484610d67565b6001905092915050565b6000600254905090565b600560149054906101000a900460ff161561047a576040517f08c379a000000000000000000000000000000000000000000000000000000000815260040161047190611ceb565b60405180910390fd5b600760009054906101000a900473ffffffffffffffffffffffffffffffffffffffff1673ffffffffffffffffffffffffffffffffffffffff163373ffffffffffffffffffffffffffffffffffffffff161461050a576040517f08c379a000000000000000000000000000000000000000000000000000000000815260040161050190611d6b565b60405180910390fd5b6105148282610f32565b5050565b6000610525848484611106565b6000600160008673ffffffffffffffffffffffffffffffffffffffff1673ffffffffffffffffffffffffffffffffffffffff1681526020019081526020016000206000610570610d5f565b73ffffffffffffffffffffffffffffffffffffffff1673ffffffffffffffffffffffffffffffffffffffff168152602001908152602001600020549050828110156105f0576040517f08c379a00000000000000000000000000000000000000000000000000000000081526004016105e790611d8b565b60405180910390fd5b61060d856105fc610d5f565b85846106089190611f13565b610d67565b60019150509392505050565b60006012905090565b60006106c461062f610d5f565b84846001600061063d610d5f565b73ffffffffffffffffffffffffffffffffffffffff1673ffffffffffffffffffffffffffffffffffffffff16815260200190815260200160002060008873ffffffffffffffffffffffffffffffffffffffff1673ffffffffffffffffffffffffffffffffffffffff168152602001908152602001600020546106bf9190611ebd565b610d67565b6001905092915050565b60008060008373ffffffffffffffffffffffffffffffffffffffff1673ffffffffffffffffffffffffffffffffffffffff168152602001908152602001600020549050919050565b61071e610d5f565b73ffffffffffffffffffffffffffffffffffffffff1661073c610853565b73ffffffffffffffffffffffffffffffffffffffff1614610792576040517f08c379a000000000000000000000000000000000000000000000000000000000815260040161078990611dab565b60405180910390fd5b600073ffffffffffffffffffffffffffffffffffffffff16600560009054906101000a900473ffffffffffffffffffffffffffffffffffffffff1673ffffffffffffffffffffffffffffffffffffffff167f8be0079c531659141344cd1fd0a4f28419497f9722a3daafe3b4186f6b6457e060405160405180910390a36000600560006101000a81548173ffffffffffffffffffffffffffffffffffffffff021916908373ffffffffffffffffffffffffffffffffffffffff160217905550565b6000600560009054906101000a900473ffffffffffffffffffffffffffffffffffffffff16905090565b60606004805461088c90611fcf565b80601f01602080910402602001604051908101604052809291908181526020018280546108b890611fcf565b80156109055780601f106108da57610100808354040283529160200191610905565b820191906000526020600020905b8154815290600101906020018083116108e857829003601f168201915b5050505050905090565b6000806001600061091e610d5f565b73ffffffffffffffffffffffffffffffffffffffff1673ffffffffffffffffffffffffffffffffffffffff16815260200190815260200160002060008573ffffffffffffffffffffffffffffffffffffffff1673ffffffffffffffffffffffffffffffffffffffff168152602001908152602001600020549050828110156109db576040517f08c379a00000000000000000000000000000000000000000000000000000000081526004016109d290611e2b565b60405180910390fd5b6109f86109e6610d5f565b8585846109f39190611f13565b610d67565b600191505092915050565b6000610a17610a10610d5f565b8484611106565b6001905092915050565b600560149054906101000a900460ff1615610a71576040517f08c379a0000000000000000000000000000000000000000000000000000000008152600401610a6890611ceb565b60405180910390fd5b600660009054906101000a900473ffffffffffffffffffffffffffffffffffffffff1673ffffffffffffffffffffffffffffffffffffffff163373ffffffffffffffffffffffffffffffffffffffff1614610b01576040517f08c379a0000000000000000000000000000000000000000000000000000000008152600401610af890611cab565b60405180910390fd5b610b0b8282611385565b5050565b80600560146101000a81548160ff02191690831515021790555050565b6000600160008473ffffffffffffffffffffffffffffffffffffffff1673ffffffffffffffffffffffffffffffffffffffff16815260200190815260200160002060008373ffffffffffffffffffffffffffffffffffffffff1673ffffffffffffffffffffffffffffffffffffffff16815260200190815260200160002054905092915050565b610bbb610d5f565b73ffffffffffffffffffffffffffffffffffffffff16610bd9610853565b73ffffffffffffffffffffffffffffffffffffffff1614610c2f576040517f08c379a0000000000000000000000000000000000000000000000000000000008152600401610c2690611dab565b60405180910390fd5b600073ffffffffffffffffffffffffffffffffffffffff168173ffffffffffffffffffffffffffffffffffffffff161415610c9f576040517f08c379a0000000000000000000000000000000000000000000000000000000008152600401610c9690611d0b565b60405180910390fd5b8073ffffffffffffffffffffffffffffffffffffffff16600560009054906101000a900473ffffffffffffffffffffffffffffffffffffffff1673ffffffffffffffffffffffffffffffffffffffff167f8be0079c531659141344cd1fd0a4f28419497f9722a3daafe3b4186f6b6457e060405160405180910390a380600560006101000a81548173ffffffffffffffffffffffffffffffffffffffff021916908373ffffffffffffffffffffffffffffffffffffffff16021790555050565b600033905090565b600073ffffffffffffffffffffffffffffffffffffffff168373ffffffffffffffffffffffffffffffffffffffff161415610dd7576040517f08c379a0000000000000000000000000000000000000000000000000000000008152600401610dce90611e0b565b60405180910390fd5b600073ffffffffffffffffffffffffffffffffffffffff168273ffffffffffffffffffffffffffffffffffffffff161415610e47576040517f08c379a0000000000000000000000000000000000000000000000000000000008152600401610e3e90611d2b565b60405180910390fd5b80600160008573ffffffffffffffffffffffffffffffffffffffff1673ffffffffffffffffffffffffffffffffffffffff16815260200190815260200160002060008473ffffffffffffffffffffffffffffffffffffffff1673ffffffffffffffffffffffffffffffffffffffff168152602001908152602001600020819055508173ffffffffffffffffffffffffffffffffffffffff168373ffffffffffffffffffffffffffffffffffffffff167f8c5be1e5ebec7d5bd14f71427d1e84f3dd0314c0f7b2291e5b200ac8c7c3b92583604051610f259190611e6b565b60405180910390a3505050565b600073ffffffffffffffffffffffffffffffffffffffff168273ffffffffffffffffffffffffffffffffffffffff161415610fa2576040517f08c379a0000000000000000000000000000000000000000000000000000000008152600401610f9990611dcb565b60405180910390fd5b610fae826000836114d9565b60008060008473ffffffffffffffffffffffffffffffffffffffff1673ffffffffffffffffffffffffffffffffffffffff16815260200190815260200160002054905081811015611034576040517f08c379a000000000000000000000000000000000000000000000000000000000815260040161102b90611ccb565b60405180910390fd5b81816110409190611f13565b6000808573ffffffffffffffffffffffffffffffffffffffff1673ffffffffffffffffffffffffffffffffffffffff1681526020019081526020016000208190555081600260008282546110949190611f13565b92505081905550600073ffffffffffffffffffffffffffffffffffffffff168373ffffffffffffffffffffffffffffffffffffffff167fddf252ad1be2c89b69c2b068fc378daa952ba7f163c4a11628f55a4df523b3ef846040516110f99190611e6b565b60405180910390a3505050565b600073ffffffffffffffffffffffffffffffffffffffff168373ffffffffffffffffffffffffffffffffffffffff161415611176576040517f08c379a000000000000000000000000000000000000000000000000000000000815260040161116d90611deb565b60405180910390fd5b600073ffffffffffffffffffffffffffffffffffffffff168273ffffffffffffffffffffffffffffffffffffffff1614156111e6576040517f08c379a00000000000000000000000000000000000000000000000000000000081526004016111dd90611c8b565b60405180910390fd5b6111f18383836114d9565b60008060008573ffffffffffffffffffffffffffffffffffffffff1673ffffffffffffffffffffffffffffffffffffffff16815260200190815260200160002054905081811015611277576040517f08c379a000000000000000000000000000000000000000000000000000000000815260040161126e90611d4b565b60405180910390fd5b81816112839190611f13565b6000808673ffffffffffffffffffffffffffffffffffffffff1673ffffffffffffffffffffffffffffffffffffffff16815260200190815260200160002081905550816000808573ffffffffffffffffffffffffffffffffffffffff1673ffffffffffffffffffffffffffffffffffffffff16815260200190815260200160002060008282546113139190611ebd565b925050819055508273ffffffffffffffffffffffffffffffffffffffff168473ffffffffffffffffffffffffffffffffffffffff167fddf252ad1be2c89b69c2b068fc378daa952ba7f163c4a11628f55a4df523b3ef846040516113779190611e6b565b60405180910390a350505050565b600073ffffffffffffffffffffffffffffffffffffffff168273ffffffffffffffffffffffffffffffffffffffff1614156113f5576040517f08c379a00000000000000000000000000000000000000000000000000000000081526004016113ec90611e4b565b60405180910390fd5b611401600083836114d9565b80600260008282546114139190611ebd565b92505081905550806000808473ffffffffffffffffffffffffffffffffffffffff1673ffffffffffffffffffffffffffffffffffffffff16815260200190815260200160002060008282546114689190611ebd565b925050819055508173ffffffffffffffffffffffffffffffffffffffff16600073ffffffffffffffffffffffffffffffffffffffff167fddf252ad1be2c89b69c2b068fc378daa952ba7f163c4a11628f55a4df523b3ef836040516114cd9190611e6b565b60405180910390a35050565b505050565b6000813590506114ed81612070565b92915050565b60008135905061150281612087565b92915050565b6000813590506115178161209e565b92915050565b60006020828403121561152f57600080fd5b600061153d848285016114de565b91505092915050565b6000806040838503121561155957600080fd5b6000611567858286016114de565b9250506020611578858286016114de565b9150509250929050565b60008060006060848603121561159757600080fd5b60006115a5868287016114de565b93505060206115b6868287016114de565b92505060406115c786828701611508565b9150509250925092565b600080604083850312156115e457600080fd5b60006115f2858286016114de565b925050602061160385828601611508565b9150509250929050565b60006020828403121561161f57600080fd5b600061162d848285016114f3565b91505092915050565b61163f81611f47565b82525050565b61164e81611f59565b82525050565b600061165f82611ea1565b6116698185611eac565b9350611679818560208601611f9c565b6116828161205f565b840191505092915050565b600061169a602383611eac565b91507f45524332303a207472616e7366657220746f20746865207a65726f206164647260008301527f65737300000000000000000000000000000000000000000000000000000000006020830152604082019050919050565b6000611700602183611eac565b91507f53656e646572206973206e6f7420746865204d696e746572206f6620746f6b6560008301527f6e000000000000000000000000000000000000000000000000000000000000006020830152604082019050919050565b6000611766602283611eac565b91507f45524332303a206275726e20616d6f756e7420657863656564732062616c616e60008301527f63650000000000000000000000000000000000000000000000000000000000006020830152604082019050919050565b60006117cc601483611eac565b91507f66756e6374696f6e2069732064697361626c65640000000000000000000000006000830152602082019050919050565b600061180c602683611eac565b91507f4f776e61626c653a206e6577206f776e657220697320746865207a65726f206160008301527f64647265737300000000000000000000000000000000000000000000000000006020830152604082019050919050565b6000611872602283611eac565b91507f45524332303a20617070726f766520746f20746865207a65726f20616464726560008301527f73730000000000000000000000000000000000000000000000000000000000006020830152604082019050919050565b60006118d8602683611eac565b91507f45524332303a207472616e7366657220616d6f756e742065786365656473206260008301527f616c616e636500000000000000000000000000000000000000000000000000006020830152604082019050919050565b600061193e602183611eac565b91507f53656e646572206973206e6f7420746865204275726e6572206f6620746f6b6560008301527f6e000000000000000000000000000000000000000000000000000000000000006020830152604082019050919050565b60006119a4602883611eac565b91507f45524332303a207472616e7366657220616d6f756e742065786365656473206160008301527f6c6c6f77616e63650000000000000000000000000000000000000000000000006020830152604082019050919050565b6000611a0a602083611eac565b91507f4f776e61626c653a2063616c6c6572206973206e6f7420746865206f776e65726000830152602082019050919050565b6000611a4a602183611eac565b91507f45524332303a206275726e2066726f6d20746865207a65726f2061646472657360008301527f73000000000000000000000000000000000000000000000000000000000000006020830152604082019050919050565b6000611ab0602583611eac565b91507f45524332303a207472616e736665722066726f6d20746865207a65726f20616460008301527f64726573730000000000000000000000000000000000000000000000000000006020830152604082019050919050565b6000611b16602483611eac565b91507f45524332303a20617070726f76652066726f6d20746865207a65726f2061646460008301527f72657373000000000000000000000000000000000000000000000000000000006020830152604082019050919050565b6000611b7c602583611eac565b91507f45524332303a2064656372656173656420616c6c6f77616e63652062656c6f7760008301527f207a65726f0000000000000000000000000000000000000000000000000000006020830152604082019050919050565b6000611be2601f83611eac565b91507f45524332303a206d696e7420746f20746865207a65726f2061646472657373006000830152602082019050919050565b611c1e81611f85565b82525050565b611c2d81611f8f565b82525050565b6000602082019050611c486000830184611636565b92915050565b6000602082019050611c636000830184611645565b92915050565b60006020820190508181036000830152611c838184611654565b905092915050565b60006020820190508181036000830152611ca48161168d565b9050919050565b60006020820190508181036000830152611cc4816116f3565b9050919050565b60006020820190508181036000830152611ce481611759565b9050919050565b60006020820190508181036000830152611d04816117bf565b9050919050565b60006020820190508181036000830152611d24816117ff565b9050919050565b60006020820190508181036000830152611d4481611865565b9050919050565b60006020820190508181036000830152611d64816118cb565b9050919050565b60006020820190508181036000830152611d8481611931565b9050919050565b60006020820190508181036000830152611da481611997565b9050919050565b60006020820190508181036000830152611dc4816119fd565b9050919050565b60006020820190508181036000830152611de481611a3d565b9050919050565b60006020820190508181036000830152611e0481611aa3565b9050919050565b60006020820190508181036000830152611e2481611b09565b9050919050565b60006020820190508181036000830152611e4481611b6f565b9050919050565b60006020820190508181036000830152611e6481611bd5565b9050919050565b6000602082019050611e806000830184611c15565b92915050565b6000602082019050611e9b6000830184611c24565b92915050565b600081519050919050565b600082825260208201905092915050565b6000611ec882611f85565b9150611ed383611f85565b9250827fffffffffffffffffffffffffffffffffffffffffffffffffffffffffffffffff03821115611f0857611f07612001565b5b828201905092915050565b6000611f1e82611f85565b9150611f2983611f85565b925082821015611f3c57611f3b612001565b5b828203905092915050565b6000611f5282611f65565b9050919050565b60008115159050919050565b600073ffffffffffffffffffffffffffffffffffffffff82169050919050565b6000819050919050565b600060ff82169050919050565b60005b83811015611fba578082015181840152602081019050611f9f565b83811115611fc9576000848401525b50505050565b60006002820490506001821680611fe757607f821691505b60208210811415611ffb57611ffa612030565b5b50919050565b7f4e487b7100000000000000000000000000000000000000000000000000000000600052601160045260246000fd5b7f4e487b7100000000000000000000000000000000000000000000000000000000600052602260045260246000fd5b6000601f19601f8301169050919050565b61207981611f47565b811461208457600080fd5b50565b61209081611f59565b811461209b57600080fd5b50565b6120a781611f85565b81146120b257600080fd5b5056fea2646970667358221220092111a9591aebd2ed0a180d56617896af4d02755a4b47e3aac6f44be79897af64736f6c63430008000033a26469706673582212204e2e90e954c06c62b512521b8ef02f4dc92f74c769b3f96ca9a867067bdc40ee64736f6c63430008000033",
  "immutableReferences": {},
  "source": "// SPDX-License-Identifier: MIT\npragma solidity >=0.8.0;\n\nimport './Token.sol';\nimport 'openzeppelin-solidity/contracts/access/Ownable.sol';\n\ncontract TokenFactory is Ownable {\n    Token[] public tokenAddresses;\n    event Transfer(\n        address indexed _token,\n        address indexed _from,\n        address indexed _to,\n        uint256 _value\n    );\n    event Approval(\n        address indexed _token,\n        address indexed _owner,\n        address indexed _spender,\n        uint256 _value\n    );\n    modifier isTokenPresent() {\n        require(tokenAddresses.length > 0, 'No tokens are present');\n        _;\n    }\n\n    event AddedValuesByDelegateCall(bool success);\n\n    event consoleLog(address contractOwner, address sender);\n\n    function createToken(\n        string memory name_,\n        string memory symbol_,\n        address minter_,\n        address burner_\n    ) external onlyOwner returns (Token tokenAddress) {\n        Token td = new Token(name_, symbol_, minter_, burner_);\n        tokenAddresses.push(td);\n        emit consoleLog(address(this), address(td));\n        return td;\n    }\n\n    function findAddress(address token) internal view returns (uint256 index) {\n        for (uint256 i = 0; i < tokenAddresses.length; i++) {\n            if (address(tokenAddresses[i]) == token) {\n                return i;\n            }\n        }\n        require(false, 'token not present');\n    }\n\n    function balanceOf(address _token, address _owner)\n        external\n        view\n        isTokenPresent\n        returns (uint256 balance)\n    {\n        uint256 index = findAddress(_token);\n        return tokenAddresses[index].balanceOf(_owner);\n    }\n\n    function mintCoins(\n        address _token,\n        address _to,\n        uint256 _value\n    ) external isTokenPresent returns (bool success) {\n        uint256 index = findAddress(_token);\n        (bool success, bytes memory result) =\n            _token.delegatecall(\n                abi.encodeWithSignature(\n                    'mintCoins(address,uint256)',\n                    _to,\n                    _value\n                )\n            );\n        emit AddedValuesByDelegateCall(success);\n        emit Transfer(_token, msg.sender, _to, _value);\n        return true;\n    }\n\n    function mintOld(\n        address _token,\n        address _to,\n        uint256 _value\n    ) external isTokenPresent returns (bool success) {\n        uint256 index = findAddress(_token);\n        tokenAddresses[index].mintCoins(_to, _value);\n        emit Transfer(_token, msg.sender, _to, _value);\n        return true;\n    }\n\n    function transfer(\n        address _token,\n        address _to,\n        uint256 _value\n    ) external isTokenPresent returns (bool success) {\n        uint256 index = findAddress(_token);\n        (bool success, bytes memory result) =\n            address(tokenAddresses[index]).delegatecall(\n                abi.encodeWithSignature(\n                    'transfer(address,uint256)',\n                    _to,\n                    _value\n                )\n            );\n        require(!success, 'Cannot transfer token');\n        emit Transfer(_token, msg.sender, _to, _value);\n        return true;\n    }\n\n    function transferFrom(\n        address _token,\n        address _from,\n        address _to,\n        uint256 _value\n    ) external isTokenPresent returns (bool success) {\n        uint256 index = findAddress(_token);\n        (bool success, bytes memory result) =\n            address(tokenAddresses[index]).delegatecall(\n                abi.encodeWithSignature(\n                    'transferFrom(address,address,uint256)',\n                    _from,\n                    _to,\n                    _value\n                )\n            );\n        require(!success, 'Cannot transferFrom token');\n        emit Transfer(_token, msg.sender, _to, _value);\n        return true;\n    }\n\n    function approve(\n        address _token,\n        address _spender,\n        uint256 _value\n    ) external isTokenPresent returns (bool success) {\n        uint256 index = findAddress(_token);\n        tokenAddresses[index].approve(_spender, _value);\n        emit Approval(_token, msg.sender, _spender, _value);\n        return true;\n    }\n\n    function allowance(\n        address _token,\n        address _owner,\n        address _spender\n    ) external view isTokenPresent returns (uint256 remaining) {\n        uint256 index = findAddress(_token);\n        return tokenAddresses[index].allowance(_owner, _spender);\n    }\n}\n",
  "sourcePath": "/home/deq/Documents/Blockchain/Assignment1/contracts/TokenFactory.sol",
  "compiler": {
    "name": "solc",
    "version": "0.8.0+commit.c7dfd78e.Emscripten.clang"
  },
  "schemaVersion": "3.3.4",
  "updatedAt": "2021-04-14T17:37:05.957Z",
  "networkType": "ethereum",
  "devdoc": {
    "kind": "dev",
    "methods": {
      "owner()": {
        "details": "Returns the address of the current owner."
      },
      "renounceOwnership()": {
        "details": "Leaves the contract without owner. It will not be possible to call `onlyOwner` functions anymore. Can only be called by the current owner. NOTE: Renouncing ownership will leave the contract without an owner, thereby removing any functionality that is only available to the owner."
      },
      "transferOwnership(address)": {
        "details": "Transfers ownership of the contract to a new account (`newOwner`). Can only be called by the current owner."
      }
    },
    "version": 1
  },
  "userdoc": {
    "kind": "user",
    "methods": {},
    "version": 1
  }
}